{
  "_format": "hh-sol-artifact-1",
  "contractName": "BabySpirit",
  "sourceName": "contracts/BabySpirit.sol",
  "abi": [
    {
      "inputs": [
        {
          "internalType": "string",
          "name": "name",
          "type": "string"
        },
        {
          "internalType": "string",
          "name": "symbol",
          "type": "string"
        },
        {
          "internalType": "string",
          "name": "baseURI",
          "type": "string"
        }
      ],
      "stateMutability": "nonpayable",
      "type": "constructor"
    },
    {
      "anonymous": false,
      "inputs": [
        {
          "indexed": true,
          "internalType": "address",
          "name": "owner",
          "type": "address"
        },
        {
          "indexed": true,
          "internalType": "address",
          "name": "approved",
          "type": "address"
        },
        {
          "indexed": true,
          "internalType": "uint256",
          "name": "tokenId",
          "type": "uint256"
        }
      ],
      "name": "Approval",
      "type": "event"
    },
    {
      "anonymous": false,
      "inputs": [
        {
          "indexed": true,
          "internalType": "address",
          "name": "owner",
          "type": "address"
        },
        {
          "indexed": true,
          "internalType": "address",
          "name": "operator",
          "type": "address"
        },
        {
          "indexed": false,
          "internalType": "bool",
          "name": "approved",
          "type": "bool"
        }
      ],
      "name": "ApprovalForAll",
      "type": "event"
    },
    {
      "anonymous": false,
      "inputs": [
        {
          "indexed": true,
          "internalType": "address",
          "name": "previousOwner",
          "type": "address"
        },
        {
          "indexed": true,
          "internalType": "address",
          "name": "newOwner",
          "type": "address"
        }
      ],
      "name": "OwnershipTransferred",
      "type": "event"
    },
    {
      "anonymous": false,
      "inputs": [
        {
          "indexed": true,
          "internalType": "address",
          "name": "from",
          "type": "address"
        },
        {
          "indexed": true,
          "internalType": "address",
          "name": "to",
          "type": "address"
        },
        {
          "indexed": true,
          "internalType": "uint256",
          "name": "tokenId",
          "type": "uint256"
        }
      ],
      "name": "Transfer",
      "type": "event"
    },
    {
      "inputs": [],
      "name": "MAX_BABYSPIRIT",
      "outputs": [
        {
          "internalType": "uint256",
          "name": "",
          "type": "uint256"
        }
      ],
      "stateMutability": "view",
      "type": "function"
    },
    {
      "inputs": [
        {
          "internalType": "address",
          "name": "to",
          "type": "address"
        },
        {
          "internalType": "uint256",
          "name": "tokenId",
          "type": "uint256"
        }
      ],
      "name": "approve",
      "outputs": [],
      "stateMutability": "nonpayable",
      "type": "function"
    },
    {
      "inputs": [],
      "name": "babySpiritPrice",
      "outputs": [
        {
          "internalType": "uint256",
          "name": "",
          "type": "uint256"
        }
      ],
      "stateMutability": "view",
      "type": "function"
    },
    {
      "inputs": [
        {
          "internalType": "address",
          "name": "owner",
          "type": "address"
        }
      ],
      "name": "balanceOf",
      "outputs": [
        {
          "internalType": "uint256",
          "name": "",
          "type": "uint256"
        }
      ],
      "stateMutability": "view",
      "type": "function"
    },
    {
      "inputs": [
        {
          "internalType": "uint256",
          "name": "tokenId",
          "type": "uint256"
        }
      ],
      "name": "getApproved",
      "outputs": [
        {
          "internalType": "address",
          "name": "",
          "type": "address"
        }
      ],
      "stateMutability": "view",
      "type": "function"
    },
    {
      "inputs": [
        {
          "internalType": "address",
          "name": "owner",
          "type": "address"
        },
        {
          "internalType": "address",
          "name": "operator",
          "type": "address"
        }
      ],
      "name": "isApprovedForAll",
      "outputs": [
        {
          "internalType": "bool",
          "name": "",
          "type": "bool"
        }
      ],
      "stateMutability": "view",
      "type": "function"
    },
    {
      "inputs": [],
      "name": "maxBabySpiritPerMint",
      "outputs": [
        {
          "internalType": "uint256",
          "name": "",
          "type": "uint256"
        }
      ],
      "stateMutability": "view",
      "type": "function"
    },
    {
      "inputs": [
        {
          "internalType": "uint256",
          "name": "quantity",
          "type": "uint256"
        },
        {
          "internalType": "string[]",
          "name": "_tokenURIArray",
          "type": "string[]"
        }
      ],
      "name": "mintBabySpirit",
      "outputs": [],
      "stateMutability": "payable",
      "type": "function"
    },
    {
      "inputs": [],
      "name": "mintingActive",
      "outputs": [
        {
          "internalType": "bool",
          "name": "",
          "type": "bool"
        }
      ],
      "stateMutability": "view",
      "type": "function"
    },
    {
      "inputs": [],
      "name": "name",
      "outputs": [
        {
          "internalType": "string",
          "name": "",
          "type": "string"
        }
      ],
      "stateMutability": "view",
      "type": "function"
    },
    {
      "inputs": [],
      "name": "owner",
      "outputs": [
        {
          "internalType": "address",
          "name": "",
          "type": "address"
        }
      ],
      "stateMutability": "view",
      "type": "function"
    },
    {
      "inputs": [
        {
          "internalType": "uint256",
          "name": "tokenId",
          "type": "uint256"
        }
      ],
      "name": "ownerOf",
      "outputs": [
        {
          "internalType": "address",
          "name": "",
          "type": "address"
        }
      ],
      "stateMutability": "view",
      "type": "function"
    },
    {
      "inputs": [],
      "name": "renounceOwnership",
      "outputs": [],
      "stateMutability": "nonpayable",
      "type": "function"
    },
    {
      "inputs": [
        {
          "internalType": "uint256",
          "name": "quantity",
          "type": "uint256"
        },
        {
          "internalType": "string[]",
          "name": "_tokenURI",
          "type": "string[]"
        }
      ],
      "name": "reserveBabySpirits",
      "outputs": [],
      "stateMutability": "nonpayable",
      "type": "function"
    },
    {
      "inputs": [
        {
          "internalType": "address",
          "name": "from",
          "type": "address"
        },
        {
          "internalType": "address",
          "name": "to",
          "type": "address"
        },
        {
          "internalType": "uint256",
          "name": "tokenId",
          "type": "uint256"
        }
      ],
      "name": "safeTransferFrom",
      "outputs": [],
      "stateMutability": "nonpayable",
      "type": "function"
    },
    {
      "inputs": [
        {
          "internalType": "address",
          "name": "from",
          "type": "address"
        },
        {
          "internalType": "address",
          "name": "to",
          "type": "address"
        },
        {
          "internalType": "uint256",
          "name": "tokenId",
          "type": "uint256"
        },
        {
          "internalType": "bytes",
          "name": "_data",
          "type": "bytes"
        }
      ],
      "name": "safeTransferFrom",
      "outputs": [],
      "stateMutability": "nonpayable",
      "type": "function"
    },
    {
      "inputs": [
        {
          "internalType": "address",
          "name": "operator",
          "type": "address"
        },
        {
          "internalType": "bool",
          "name": "approved",
          "type": "bool"
        }
      ],
      "name": "setApprovalForAll",
      "outputs": [],
      "stateMutability": "nonpayable",
      "type": "function"
    },
    {
      "inputs": [
        {
          "internalType": "string",
          "name": "baseURI",
          "type": "string"
        }
      ],
      "name": "setBaseURI",
      "outputs": [],
      "stateMutability": "nonpayable",
      "type": "function"
    },
    {
      "inputs": [
        {
          "internalType": "uint256",
          "name": "quantity",
          "type": "uint256"
        }
      ],
      "name": "setMaxQuantityPerMint",
      "outputs": [],
      "stateMutability": "nonpayable",
      "type": "function"
    },
    {
      "inputs": [
        {
          "internalType": "bytes4",
          "name": "interfaceId",
          "type": "bytes4"
        }
      ],
      "name": "supportsInterface",
      "outputs": [
        {
          "internalType": "bool",
          "name": "",
          "type": "bool"
        }
      ],
      "stateMutability": "view",
      "type": "function"
    },
    {
      "inputs": [],
      "name": "switchMinting",
      "outputs": [],
      "stateMutability": "nonpayable",
      "type": "function"
    },
    {
      "inputs": [],
      "name": "symbol",
      "outputs": [
        {
          "internalType": "string",
          "name": "",
          "type": "string"
        }
      ],
      "stateMutability": "view",
      "type": "function"
    },
    {
      "inputs": [
        {
          "internalType": "uint256",
          "name": "index",
          "type": "uint256"
        }
      ],
      "name": "tokenByIndex",
      "outputs": [
        {
          "internalType": "uint256",
          "name": "",
          "type": "uint256"
        }
      ],
      "stateMutability": "view",
      "type": "function"
    },
    {
      "inputs": [
        {
          "internalType": "address",
          "name": "owner",
          "type": "address"
        },
        {
          "internalType": "uint256",
          "name": "index",
          "type": "uint256"
        }
      ],
      "name": "tokenOfOwnerByIndex",
      "outputs": [
        {
          "internalType": "uint256",
          "name": "",
          "type": "uint256"
        }
      ],
      "stateMutability": "view",
      "type": "function"
    },
    {
      "inputs": [
        {
          "internalType": "uint256",
          "name": "tokenId",
          "type": "uint256"
        }
      ],
      "name": "tokenURI",
      "outputs": [
        {
          "internalType": "string",
          "name": "",
          "type": "string"
        }
      ],
      "stateMutability": "view",
      "type": "function"
    },
    {
      "inputs": [],
      "name": "totalSupply",
      "outputs": [
        {
          "internalType": "uint256",
          "name": "",
          "type": "uint256"
        }
      ],
      "stateMutability": "view",
      "type": "function"
    },
    {
      "inputs": [
        {
          "internalType": "address",
          "name": "from",
          "type": "address"
        },
        {
          "internalType": "address",
          "name": "to",
          "type": "address"
        },
        {
          "internalType": "uint256",
          "name": "tokenId",
          "type": "uint256"
        }
      ],
      "name": "transferFrom",
      "outputs": [],
      "stateMutability": "nonpayable",
      "type": "function"
    },
    {
      "inputs": [
        {
          "internalType": "address",
          "name": "newOwner",
          "type": "address"
        }
      ],
      "name": "transferOwnership",
      "outputs": [],
      "stateMutability": "nonpayable",
      "type": "function"
    },
    {
      "inputs": [],
      "name": "withdrawBalance",
      "outputs": [],
      "stateMutability": "nonpayable",
      "type": "function"
    }
  ],
  "bytecode": "0x608060405260405180602001604052806000815250600b90805190602001906200002b929190620001a1565b506103e8600d5566b1a2bc2ec50000600e55600a600f556000601060006101000a81548160ff0219169083151502179055503480156200006a57600080fd5b50604051620047a3380380620047a38339818101604052810190620000909190620002c3565b82828160009080519060200190620000aa929190620001a1565b508060019080519060200190620000c3929190620001a1565b5050506000620000d86200019960201b60201c565b905080600a60006101000a81548173ffffffffffffffffffffffffffffffffffffffff021916908373ffffffffffffffffffffffffffffffffffffffff1602179055508073ffffffffffffffffffffffffffffffffffffffff16600073ffffffffffffffffffffffffffffffffffffffff167f8be0079c531659141344cd1fd0a4f28419497f9722a3daafe3b4186f6b6457e060405160405180910390a35080600b90805190602001906200018f929190620001a1565b5050505062000495565b600033905090565b828054620001af9062000401565b90600052602060002090601f016020900481019282620001d357600085556200021f565b82601f10620001ee57805160ff19168380011785556200021f565b828001600101855582156200021f579182015b828111156200021e57825182559160200191906001019062000201565b5b5090506200022e919062000232565b5090565b5b808211156200024d57600081600090555060010162000233565b5090565b600062000268620002628462000398565b62000364565b9050828152602081018484840111156200028157600080fd5b6200028e848285620003cb565b509392505050565b600082601f830112620002a857600080fd5b8151620002ba84826020860162000251565b91505092915050565b600080600060608486031215620002d957600080fd5b600084015167ffffffffffffffff811115620002f457600080fd5b620003028682870162000296565b935050602084015167ffffffffffffffff8111156200032057600080fd5b6200032e8682870162000296565b925050604084015167ffffffffffffffff8111156200034c57600080fd5b6200035a8682870162000296565b9150509250925092565b6000604051905081810181811067ffffffffffffffff821117156200038e576200038d62000466565b5b8060405250919050565b600067ffffffffffffffff821115620003b657620003b562000466565b5b601f19601f8301169050602081019050919050565b60005b83811015620003eb578082015181840152602081019050620003ce565b83811115620003fb576000848401525b50505050565b600060028204905060018216806200041a57607f821691505b6020821081141562000431576200043062000437565b5b50919050565b7f4e487b7100000000000000000000000000000000000000000000000000000000600052602260045260246000fd5b7f4e487b7100000000000000000000000000000000000000000000000000000000600052604160045260246000fd5b6142fe80620004a56000396000f3fe6080604052600436106101c15760003560e01c806355f804b3116100f75780638da5cb5b11610095578063b88d4fde11610064578063b88d4fde1461060c578063c87b56dd14610635578063e985e9c514610672578063f2fde38b146106af576101c1565b80638da5cb5b146105625780638dee50291461058d57806395d89b41146105b8578063a22cb465146105e3576101c1565b80636352211e116100d15780636352211e146104a657806370a08231146104e3578063715018a61461052057806372bacf2914610537576101c1565b806355f804b31461043b5780635e461821146104645780635fd8c7101461048f576101c1565b8063290b2a0f116101645780633b6ccee71161013e5780633b6ccee7146103a257806342842e0e146103b95780634b52ca2f146103e25780634f6ccce7146103fe576101c1565b8063290b2a0f146103115780632f745c591461033a57806331f9c91914610377576101c1565b8063081812fc116101a0578063081812fc14610257578063095ea7b31461029457806318160ddd146102bd57806323b872dd146102e8576101c1565b8062ecb290146101c657806301ffc9a7146101ef57806306fdde031461022c575b600080fd5b3480156101d257600080fd5b506101ed60048036038101906101e89190613075565b6106d8565b005b3480156101fb57600080fd5b5061021660048036038101906102119190612fb9565b6107e3565b6040516102239190613ad0565b60405180910390f35b34801561023857600080fd5b5061024161085d565b60405161024e9190613aeb565b60405180910390f35b34801561026357600080fd5b5061027e6004803603810190610279919061304c565b6108ef565b60405161028b9190613a69565b60405180910390f35b3480156102a057600080fd5b506102bb60048036038101906102b69190612f7d565b610974565b005b3480156102c957600080fd5b506102d2610a8c565b6040516102df9190613e0d565b60405180910390f35b3480156102f457600080fd5b5061030f600480360381019061030a9190612e77565b610a99565b005b34801561031d57600080fd5b506103386004803603810190610333919061304c565b610af9565b005b34801561034657600080fd5b50610361600480360381019061035c9190612f7d565b610b7f565b60405161036e9190613e0d565b60405180910390f35b34801561038357600080fd5b5061038c610c24565b6040516103999190613ad0565b60405180910390f35b3480156103ae57600080fd5b506103b7610c37565b005b3480156103c557600080fd5b506103e060048036038101906103db9190612e77565b610cdf565b005b6103fc60048036038101906103f79190613075565b610cff565b005b34801561040a57600080fd5b506104256004803603810190610420919061304c565b610f21565b6040516104329190613e0d565b60405180910390f35b34801561044757600080fd5b50610462600480360381019061045d919061300b565b610fb8565b005b34801561047057600080fd5b5061047961104e565b6040516104869190613e0d565b60405180910390f35b34801561049b57600080fd5b506104a4611054565b005b3480156104b257600080fd5b506104cd60048036038101906104c8919061304c565b61111f565b6040516104da9190613a69565b60405180910390f35b3480156104ef57600080fd5b5061050a60048036038101906105059190612e12565b6111d1565b6040516105179190613e0d565b60405180910390f35b34801561052c57600080fd5b50610535611289565b005b34801561054357600080fd5b5061054c6113c6565b6040516105599190613e0d565b60405180910390f35b34801561056e57600080fd5b506105776113cc565b6040516105849190613a69565b60405180910390f35b34801561059957600080fd5b506105a26113f6565b6040516105af9190613e0d565b60405180910390f35b3480156105c457600080fd5b506105cd6113fc565b6040516105da9190613aeb565b60405180910390f35b3480156105ef57600080fd5b5061060a60048036038101906106059190612f41565b61148e565b005b34801561061857600080fd5b50610633600480360381019061062e9190612ec6565b61160f565b005b34801561064157600080fd5b5061065c6004803603810190610657919061304c565b611671565b6040516106699190613aeb565b60405180910390f35b34801561067e57600080fd5b5061069960048036038101906106949190612e3b565b6117e4565b6040516106a69190613ad0565b60405180910390f35b3480156106bb57600080fd5b506106d660048036038101906106d19190612e12565b611878565b005b6106e0611a24565b73ffffffffffffffffffffffffffffffffffffffff166106fe6113cc565b73ffffffffffffffffffffffffffffffffffffffff1614610754576040517f08c379a000000000000000000000000000000000000000000000000000000000815260040161074b90613d0d565b60405180910390fd5b60005b828110156107de576000610769610a8c565b9050600d548110156107ca5761077f3382611a2c565b6107c9818484815181106107bc577f4e487b7100000000000000000000000000000000000000000000000000000000600052603260045260246000fd5b6020026020010151611a4a565b5b5080806107d690614125565b915050610757565b505050565b60007f780e9d63000000000000000000000000000000000000000000000000000000007bffffffffffffffffffffffffffffffffffffffffffffffffffffffff1916827bffffffffffffffffffffffffffffffffffffffffffffffffffffffff19161480610856575061085582611abe565b5b9050919050565b60606000805461086c906140f3565b80601f0160208091040260200160405190810160405280929190818152602001828054610898906140f3565b80156108e55780601f106108ba576101008083540402835291602001916108e5565b820191906000526020600020905b8154815290600101906020018083116108c857829003601f168201915b5050505050905090565b60006108fa82611ba0565b610939576040517f08c379a000000000000000000000000000000000000000000000000000000000815260040161093090613ccd565b60405180910390fd5b6004600083815260200190815260200160002060009054906101000a900473ffffffffffffffffffffffffffffffffffffffff169050919050565b600061097f8261111f565b90508073ffffffffffffffffffffffffffffffffffffffff168373ffffffffffffffffffffffffffffffffffffffff1614156109f0576040517f08c379a00000000000000000000000000000000000000000000000000000000081526004016109e790613d6d565b60405180910390fd5b8073ffffffffffffffffffffffffffffffffffffffff16610a0f611a24565b73ffffffffffffffffffffffffffffffffffffffff161480610a3e5750610a3d81610a38611a24565b6117e4565b5b610a7d576040517f08c379a0000000000000000000000000000000000000000000000000000000008152600401610a7490613c2d565b60405180910390fd5b610a878383611c0c565b505050565b6000600880549050905090565b610aaa610aa4611a24565b82611cc5565b610ae9576040517f08c379a0000000000000000000000000000000000000000000000000000000008152600401610ae090613d8d565b60405180910390fd5b610af4838383611da3565b505050565b610b01611a24565b73ffffffffffffffffffffffffffffffffffffffff16610b1f6113cc565b73ffffffffffffffffffffffffffffffffffffffff1614610b75576040517f08c379a0000000000000000000000000000000000000000000000000000000008152600401610b6c90613d0d565b60405180910390fd5b80600f8190555050565b6000610b8a836111d1565b8210610bcb576040517f08c379a0000000000000000000000000000000000000000000000000000000008152600401610bc290613b2d565b60405180910390fd5b600660008473ffffffffffffffffffffffffffffffffffffffff1673ffffffffffffffffffffffffffffffffffffffff168152602001908152602001600020600083815260200190815260200160002054905092915050565b601060009054906101000a900460ff1681565b610c3f611a24565b73ffffffffffffffffffffffffffffffffffffffff16610c5d6113cc565b73ffffffffffffffffffffffffffffffffffffffff1614610cb3576040517f08c379a0000000000000000000000000000000000000000000000000000000008152600401610caa90613d0d565b60405180910390fd5b601060009054906101000a900460ff1615601060006101000a81548160ff021916908315150217905550565b610cfa8383836040518060200160405280600081525061160f565b505050565b601060009054906101000a900460ff16610d4e576040517f08c379a0000000000000000000000000000000000000000000000000000000008152600401610d4590613dad565b60405180910390fd5b60008211610d91576040517f08c379a0000000000000000000000000000000000000000000000000000000008152600401610d8890613b0d565b60405180910390fd5b600d54610dae83610da0610a8c565b61200190919063ffffffff16565b1115610def576040517f08c379a0000000000000000000000000000000000000000000000000000000008152600401610de690613bed565b60405180910390fd5b600f54821115610e34576040517f08c379a0000000000000000000000000000000000000000000000000000000008152600401610e2b90613ded565b60405180910390fd5b34610e4a83600e5461201790919063ffffffff16565b1115610e8b576040517f08c379a0000000000000000000000000000000000000000000000000000000008152600401610e8290613cad565b60405180910390fd5b60005b82811015610f1c576000610ea0610a8c565b9050600d54610ead610a8c565b1015610f0857610ebd3382611a2c565b610f0781848481518110610efa577f4e487b7100000000000000000000000000000000000000000000000000000000600052603260045260246000fd5b6020026020010151611a4a565b5b508080610f1490614125565b915050610e8e565b505050565b6000610f2b610a8c565b8210610f6c576040517f08c379a0000000000000000000000000000000000000000000000000000000008152600401610f6390613dcd565b60405180910390fd5b60088281548110610fa6577f4e487b7100000000000000000000000000000000000000000000000000000000600052603260045260246000fd5b90600052602060002001549050919050565b610fc0611a24565b73ffffffffffffffffffffffffffffffffffffffff16610fde6113cc565b73ffffffffffffffffffffffffffffffffffffffff1614611034576040517f08c379a000000000000000000000000000000000000000000000000000000000815260040161102b90613d0d565b60405180910390fd5b80600b908051906020019061104a929190612baf565b5050565b600e5481565b61105c611a24565b73ffffffffffffffffffffffffffffffffffffffff1661107a6113cc565b73ffffffffffffffffffffffffffffffffffffffff16146110d0576040517f08c379a00000000000000000000000000000000000000000000000000000000081526004016110c790613d0d565b60405180910390fd5b60004790503373ffffffffffffffffffffffffffffffffffffffff166108fc829081150290604051600060405180830381858888f1935050505015801561111b573d6000803e3d6000fd5b5050565b6000806002600084815260200190815260200160002060009054906101000a900473ffffffffffffffffffffffffffffffffffffffff169050600073ffffffffffffffffffffffffffffffffffffffff168173ffffffffffffffffffffffffffffffffffffffff1614156111c8576040517f08c379a00000000000000000000000000000000000000000000000000000000081526004016111bf90613c6d565b60405180910390fd5b80915050919050565b60008073ffffffffffffffffffffffffffffffffffffffff168273ffffffffffffffffffffffffffffffffffffffff161415611242576040517f08c379a000000000000000000000000000000000000000000000000000000000815260040161123990613c4d565b60405180910390fd5b600360008373ffffffffffffffffffffffffffffffffffffffff1673ffffffffffffffffffffffffffffffffffffffff168152602001908152602001600020549050919050565b611291611a24565b73ffffffffffffffffffffffffffffffffffffffff166112af6113cc565b73ffffffffffffffffffffffffffffffffffffffff1614611305576040517f08c379a00000000000000000000000000000000000000000000000000000000081526004016112fc90613d0d565b60405180910390fd5b600073ffffffffffffffffffffffffffffffffffffffff16600a60009054906101000a900473ffffffffffffffffffffffffffffffffffffffff1673ffffffffffffffffffffffffffffffffffffffff167f8be0079c531659141344cd1fd0a4f28419497f9722a3daafe3b4186f6b6457e060405160405180910390a36000600a60006101000a81548173ffffffffffffffffffffffffffffffffffffffff021916908373ffffffffffffffffffffffffffffffffffffffff160217905550565b600f5481565b6000600a60009054906101000a900473ffffffffffffffffffffffffffffffffffffffff16905090565b600d5481565b60606001805461140b906140f3565b80601f0160208091040260200160405190810160405280929190818152602001828054611437906140f3565b80156114845780601f1061145957610100808354040283529160200191611484565b820191906000526020600020905b81548152906001019060200180831161146757829003601f168201915b5050505050905090565b611496611a24565b73ffffffffffffffffffffffffffffffffffffffff168273ffffffffffffffffffffffffffffffffffffffff161415611504576040517f08c379a00000000000000000000000000000000000000000000000000000000081526004016114fb90613bcd565b60405180910390fd5b8060056000611511611a24565b73ffffffffffffffffffffffffffffffffffffffff1673ffffffffffffffffffffffffffffffffffffffff16815260200190815260200160002060008473ffffffffffffffffffffffffffffffffffffffff1673ffffffffffffffffffffffffffffffffffffffff16815260200190815260200160002060006101000a81548160ff0219169083151502179055508173ffffffffffffffffffffffffffffffffffffffff166115be611a24565b73ffffffffffffffffffffffffffffffffffffffff167f17307eab39ab6107e8899845ad3d59bd9653f200f220920489ca2b5937696c31836040516116039190613ad0565b60405180910390a35050565b61162061161a611a24565b83611cc5565b61165f576040517f08c379a000000000000000000000000000000000000000000000000000000000815260040161165690613d8d565b60405180910390fd5b61166b8484848461202d565b50505050565b606061167c82611ba0565b6116bb576040517f08c379a00000000000000000000000000000000000000000000000000000000081526004016116b290613d4d565b60405180910390fd5b6000600c600084815260200190815260200160002080546116db906140f3565b80601f0160208091040260200160405190810160405280929190818152602001828054611707906140f3565b80156117545780601f1061172957610100808354040283529160200191611754565b820191906000526020600020905b81548152906001019060200180831161173757829003601f168201915b505050505090506000611765612089565b905060008151141561177b5781925050506117df565b6000825111156117b0578082604051602001611798929190613a45565b604051602081830303815290604052925050506117df565b806117ba8561211b565b6040516020016117cb929190613a45565b604051602081830303815290604052925050505b919050565b6000600560008473ffffffffffffffffffffffffffffffffffffffff1673ffffffffffffffffffffffffffffffffffffffff16815260200190815260200160002060008373ffffffffffffffffffffffffffffffffffffffff1673ffffffffffffffffffffffffffffffffffffffff16815260200190815260200160002060009054906101000a900460ff16905092915050565b611880611a24565b73ffffffffffffffffffffffffffffffffffffffff1661189e6113cc565b73ffffffffffffffffffffffffffffffffffffffff16146118f4576040517f08c379a00000000000000000000000000000000000000000000000000000000081526004016118eb90613d0d565b60405180910390fd5b600073ffffffffffffffffffffffffffffffffffffffff168173ffffffffffffffffffffffffffffffffffffffff161415611964576040517f08c379a000000000000000000000000000000000000000000000000000000000815260040161195b90613b6d565b60405180910390fd5b8073ffffffffffffffffffffffffffffffffffffffff16600a60009054906101000a900473ffffffffffffffffffffffffffffffffffffffff1673ffffffffffffffffffffffffffffffffffffffff167f8be0079c531659141344cd1fd0a4f28419497f9722a3daafe3b4186f6b6457e060405160405180910390a380600a60006101000a81548173ffffffffffffffffffffffffffffffffffffffff021916908373ffffffffffffffffffffffffffffffffffffffff16021790555050565b600033905090565b611a468282604051806020016040528060008152506122c8565b5050565b611a5382611ba0565b611a92576040517f08c379a0000000000000000000000000000000000000000000000000000000008152600401611a8990613ced565b60405180910390fd5b80600c60008481526020019081526020016000209080519060200190611ab9929190612baf565b505050565b60007f80ac58cd000000000000000000000000000000000000000000000000000000007bffffffffffffffffffffffffffffffffffffffffffffffffffffffff1916827bffffffffffffffffffffffffffffffffffffffffffffffffffffffff19161480611b8957507f5b5e139f000000000000000000000000000000000000000000000000000000007bffffffffffffffffffffffffffffffffffffffffffffffffffffffff1916827bffffffffffffffffffffffffffffffffffffffffffffffffffffffff1916145b80611b995750611b9882612323565b5b9050919050565b60008073ffffffffffffffffffffffffffffffffffffffff166002600084815260200190815260200160002060009054906101000a900473ffffffffffffffffffffffffffffffffffffffff1673ffffffffffffffffffffffffffffffffffffffff1614159050919050565b816004600083815260200190815260200160002060006101000a81548173ffffffffffffffffffffffffffffffffffffffff021916908373ffffffffffffffffffffffffffffffffffffffff160217905550808273ffffffffffffffffffffffffffffffffffffffff16611c7f8361111f565b73ffffffffffffffffffffffffffffffffffffffff167f8c5be1e5ebec7d5bd14f71427d1e84f3dd0314c0f7b2291e5b200ac8c7c3b92560405160405180910390a45050565b6000611cd082611ba0565b611d0f576040517f08c379a0000000000000000000000000000000000000000000000000000000008152600401611d0690613c0d565b60405180910390fd5b6000611d1a8361111f565b90508073ffffffffffffffffffffffffffffffffffffffff168473ffffffffffffffffffffffffffffffffffffffff161480611d8957508373ffffffffffffffffffffffffffffffffffffffff16611d71846108ef565b73ffffffffffffffffffffffffffffffffffffffff16145b80611d9a5750611d9981856117e4565b5b91505092915050565b8273ffffffffffffffffffffffffffffffffffffffff16611dc38261111f565b73ffffffffffffffffffffffffffffffffffffffff1614611e19576040517f08c379a0000000000000000000000000000000000000000000000000000000008152600401611e1090613d2d565b60405180910390fd5b600073ffffffffffffffffffffffffffffffffffffffff168273ffffffffffffffffffffffffffffffffffffffff161415611e89576040517f08c379a0000000000000000000000000000000000000000000000000000000008152600401611e8090613bad565b60405180910390fd5b611e96838383600161238d565b611ea1600082611c0c565b6001600360008573ffffffffffffffffffffffffffffffffffffffff1673ffffffffffffffffffffffffffffffffffffffff1681526020019081526020016000206000828254611ef19190614009565b925050819055506001600360008473ffffffffffffffffffffffffffffffffffffffff1673ffffffffffffffffffffffffffffffffffffffff1681526020019081526020016000206000828254611f489190613f28565b92505081905550816002600083815260200190815260200160002060006101000a81548173ffffffffffffffffffffffffffffffffffffffff021916908373ffffffffffffffffffffffffffffffffffffffff160217905550808273ffffffffffffffffffffffffffffffffffffffff168473ffffffffffffffffffffffffffffffffffffffff167fddf252ad1be2c89b69c2b068fc378daa952ba7f163c4a11628f55a4df523b3ef60405160405180910390a4505050565b6000818361200f9190613f28565b905092915050565b600081836120259190613faf565b905092915050565b612038848484611da3565b612044848484846124b7565b612083576040517f08c379a000000000000000000000000000000000000000000000000000000000815260040161207a90613b4d565b60405180910390fd5b50505050565b6060600b8054612098906140f3565b80601f01602080910402602001604051908101604052809291908181526020018280546120c4906140f3565b80156121115780601f106120e657610100808354040283529160200191612111565b820191906000526020600020905b8154815290600101906020018083116120f457829003601f168201915b5050505050905090565b60606000821415612163576040518060400160405280600181526020017f300000000000000000000000000000000000000000000000000000000000000081525090506122c3565b600082905060005b6000821461219557808061217e90614125565b915050600a8261218e9190613f7e565b915061216b565b60008167ffffffffffffffff8111156121d7577f4e487b7100000000000000000000000000000000000000000000000000000000600052604160045260246000fd5b6040519080825280601f01601f1916602001820160405280156122095781602001600182028036833780820191505090505b5090505b600085146122bc576001826122229190614009565b9150600a85612231919061416e565b603061223d9190613f28565b60f81b818381518110612279577f4e487b7100000000000000000000000000000000000000000000000000000000600052603260045260246000fd5b60200101907effffffffffffffffffffffffffffffffffffffffffffffffffffffffffffff1916908160001a905350600a856122b59190613f7e565b945061220d565b8093505050505b919050565b6122d2838361264e565b6122df60008484846124b7565b61231e576040517f08c379a000000000000000000000000000000000000000000000000000000000815260040161231590613b4d565b60405180910390fd5b505050565b60007f01ffc9a7000000000000000000000000000000000000000000000000000000007bffffffffffffffffffffffffffffffffffffffffffffffffffffffff1916827bffffffffffffffffffffffffffffffffffffffffffffffffffffffff1916149050919050565b6123998484848461281e565b600073ffffffffffffffffffffffffffffffffffffffff168473ffffffffffffffffffffffffffffffffffffffff1614156123dc576123d782612824565b61241b565b8273ffffffffffffffffffffffffffffffffffffffff168473ffffffffffffffffffffffffffffffffffffffff161461241a57612419848361286d565b5b5b600073ffffffffffffffffffffffffffffffffffffffff168373ffffffffffffffffffffffffffffffffffffffff161480156124545750805b1561246757612462826129da565b6124b1565b8373ffffffffffffffffffffffffffffffffffffffff168373ffffffffffffffffffffffffffffffffffffffff16141580156124a05750805b156124b0576124af8383612b1d565b5b5b50505050565b60006124d88473ffffffffffffffffffffffffffffffffffffffff16612b9c565b15612641578373ffffffffffffffffffffffffffffffffffffffff1663150b7a02612501611a24565b8786866040518563ffffffff1660e01b81526004016125239493929190613a84565b602060405180830381600087803b15801561253d57600080fd5b505af192505050801561256e57506040513d601f19601f8201168201806040525081019061256b9190612fe2565b60015b6125f1573d806000811461259e576040519150601f19603f3d011682016040523d82523d6000602084013e6125a3565b606091505b506000815114156125e9576040517f08c379a00000000000000000000000000000000000000000000000000000000081526004016125e090613b4d565b60405180910390fd5b805181602001fd5b63150b7a0260e01b7bffffffffffffffffffffffffffffffffffffffffffffffffffffffff1916817bffffffffffffffffffffffffffffffffffffffffffffffffffffffff191614915050612646565b600190505b949350505050565b600073ffffffffffffffffffffffffffffffffffffffff168273ffffffffffffffffffffffffffffffffffffffff1614156126be576040517f08c379a00000000000000000000000000000000000000000000000000000000081526004016126b590613c8d565b60405180910390fd5b6126c781611ba0565b15612707576040517f08c379a00000000000000000000000000000000000000000000000000000000081526004016126fe90613b8d565b60405180910390fd5b61271560008383600161238d565b6001600360008473ffffffffffffffffffffffffffffffffffffffff1673ffffffffffffffffffffffffffffffffffffffff16815260200190815260200160002060008282546127659190613f28565b92505081905550816002600083815260200190815260200160002060006101000a81548173ffffffffffffffffffffffffffffffffffffffff021916908373ffffffffffffffffffffffffffffffffffffffff160217905550808273ffffffffffffffffffffffffffffffffffffffff16600073ffffffffffffffffffffffffffffffffffffffff167fddf252ad1be2c89b69c2b068fc378daa952ba7f163c4a11628f55a4df523b3ef60405160405180910390a45050565b50505050565b6008805490506009600083815260200190815260200160002081905550600881908060018154018082558091505060019003906000526020600020016000909190919091505550565b6000600161287a846111d1565b6128849190614009565b9050600060076000848152602001908152602001600020549050818114612969576000600660008673ffffffffffffffffffffffffffffffffffffffff1673ffffffffffffffffffffffffffffffffffffffff168152602001908152602001600020600084815260200190815260200160002054905080600660008773ffffffffffffffffffffffffffffffffffffffff1673ffffffffffffffffffffffffffffffffffffffff168152602001908152602001600020600084815260200190815260200160002081905550816007600083815260200190815260200160002081905550505b6007600084815260200190815260200160002060009055600660008573ffffffffffffffffffffffffffffffffffffffff1673ffffffffffffffffffffffffffffffffffffffff16815260200190815260200160002060008381526020019081526020016000206000905550505050565b600060016008805490506129ee9190614009565b9050600060096000848152602001908152602001600020549050600060088381548110612a44577f4e487b7100000000000000000000000000000000000000000000000000000000600052603260045260246000fd5b906000526020600020015490508060088381548110612a8c577f4e487b7100000000000000000000000000000000000000000000000000000000600052603260045260246000fd5b906000526020600020018190555081600960008381526020019081526020016000208190555060096000858152602001908152602001600020600090556008805480612b01577f4e487b7100000000000000000000000000000000000000000000000000000000600052603160045260246000fd5b6001900381819060005260206000200160009055905550505050565b6000612b28836111d1565b905081600660008573ffffffffffffffffffffffffffffffffffffffff1673ffffffffffffffffffffffffffffffffffffffff168152602001908152602001600020600083815260200190815260200160002081905550806007600084815260200190815260200160002081905550505050565b600080823b905060008111915050919050565b828054612bbb906140f3565b90600052602060002090601f016020900481019282612bdd5760008555612c24565b82601f10612bf657805160ff1916838001178555612c24565b82800160010185558215612c24579182015b82811115612c23578251825591602001919060010190612c08565b5b509050612c319190612c35565b5090565b5b80821115612c4e576000816000905550600101612c36565b5090565b6000612c65612c6084613e59565b613e28565b9050808382526020820190508260005b85811015612ca55781358501612c8b8882612dd3565b845260208401935060208301925050600181019050612c75565b5050509392505050565b6000612cc2612cbd84613e85565b613e28565b905082815260208101848484011115612cda57600080fd5b612ce58482856140b1565b509392505050565b6000612d00612cfb84613eb5565b613e28565b905082815260208101848484011115612d1857600080fd5b612d238482856140b1565b509392505050565b600081359050612d3a8161426c565b92915050565b600082601f830112612d5157600080fd5b8135612d61848260208601612c52565b91505092915050565b600081359050612d7981614283565b92915050565b600081359050612d8e8161429a565b92915050565b600081519050612da38161429a565b92915050565b600082601f830112612dba57600080fd5b8135612dca848260208601612caf565b91505092915050565b600082601f830112612de457600080fd5b8135612df4848260208601612ced565b91505092915050565b600081359050612e0c816142b1565b92915050565b600060208284031215612e2457600080fd5b6000612e3284828501612d2b565b91505092915050565b60008060408385031215612e4e57600080fd5b6000612e5c85828601612d2b565b9250506020612e6d85828601612d2b565b9150509250929050565b600080600060608486031215612e8c57600080fd5b6000612e9a86828701612d2b565b9350506020612eab86828701612d2b565b9250506040612ebc86828701612dfd565b9150509250925092565b60008060008060808587031215612edc57600080fd5b6000612eea87828801612d2b565b9450506020612efb87828801612d2b565b9350506040612f0c87828801612dfd565b925050606085013567ffffffffffffffff811115612f2957600080fd5b612f3587828801612da9565b91505092959194509250565b60008060408385031215612f5457600080fd5b6000612f6285828601612d2b565b9250506020612f7385828601612d6a565b9150509250929050565b60008060408385031215612f9057600080fd5b6000612f9e85828601612d2b565b9250506020612faf85828601612dfd565b9150509250929050565b600060208284031215612fcb57600080fd5b6000612fd984828501612d7f565b91505092915050565b600060208284031215612ff457600080fd5b600061300284828501612d94565b91505092915050565b60006020828403121561301d57600080fd5b600082013567ffffffffffffffff81111561303757600080fd5b61304384828501612dd3565b91505092915050565b60006020828403121561305e57600080fd5b600061306c84828501612dfd565b91505092915050565b6000806040838503121561308857600080fd5b600061309685828601612dfd565b925050602083013567ffffffffffffffff8111156130b357600080fd5b6130bf85828601612d40565b9150509250929050565b6130d28161403d565b82525050565b6130e18161404f565b82525050565b60006130f282613ee5565b6130fc8185613efb565b935061310c8185602086016140c0565b6131158161425b565b840191505092915050565b600061312b82613ef0565b6131358185613f0c565b93506131458185602086016140c0565b61314e8161425b565b840191505092915050565b600061316482613ef0565b61316e8185613f1d565b935061317e8185602086016140c0565b80840191505092915050565b6000613197602883613f0c565b91507f5768792061726520796f75206d696e74696e67206c657373207468616e207a6560008301527f726f20626f79732e0000000000000000000000000000000000000000000000006020830152604082019050919050565b60006131fd602b83613f0c565b91507f455243373231456e756d657261626c653a206f776e657220696e646578206f7560008301527f74206f6620626f756e64730000000000000000000000000000000000000000006020830152604082019050919050565b6000613263603283613f0c565b91507f4552433732313a207472616e7366657220746f206e6f6e20455243373231526560008301527f63656976657220696d706c656d656e74657200000000000000000000000000006020830152604082019050919050565b60006132c9602683613f0c565b91507f4f776e61626c653a206e6577206f776e657220697320746865207a65726f206160008301527f64647265737300000000000000000000000000000000000000000000000000006020830152604082019050919050565b600061332f601c83613f0c565b91507f4552433732313a20746f6b656e20616c7265616479206d696e746564000000006000830152602082019050919050565b600061336f602483613f0c565b91507f4552433732313a207472616e7366657220746f20746865207a65726f2061646460008301527f72657373000000000000000000000000000000000000000000000000000000006020830152604082019050919050565b60006133d5601983613f0c565b91507f4552433732313a20617070726f766520746f2063616c6c6572000000000000006000830152602082019050919050565b6000613415602483613f0c565b91507f4f6e6c7920312c3030302042616279537069726974732061726520617661696c60008301527f61626c65000000000000000000000000000000000000000000000000000000006020830152604082019050919050565b600061347b602c83613f0c565b91507f4552433732313a206f70657261746f7220717565727920666f72206e6f6e657860008301527f697374656e7420746f6b656e00000000000000000000000000000000000000006020830152604082019050919050565b60006134e1603883613f0c565b91507f4552433732313a20617070726f76652063616c6c6572206973206e6f74206f7760008301527f6e6572206e6f7220617070726f76656420666f7220616c6c00000000000000006020830152604082019050919050565b6000613547602a83613f0c565b91507f4552433732313a2062616c616e636520717565727920666f7220746865207a6560008301527f726f2061646472657373000000000000000000000000000000000000000000006020830152604082019050919050565b60006135ad602983613f0c565b91507f4552433732313a206f776e657220717565727920666f72206e6f6e657869737460008301527f656e7420746f6b656e00000000000000000000000000000000000000000000006020830152604082019050919050565b6000613613602083613f0c565b91507f4552433732313a206d696e7420746f20746865207a65726f20616464726573736000830152602082019050919050565b6000613653602083613f0c565b91507f457468657265756d2073656e74206973206e6f742073756666696369656e742e6000830152602082019050919050565b6000613693602c83613f0c565b91507f4552433732313a20617070726f76656420717565727920666f72206e6f6e657860008301527f697374656e7420746f6b656e00000000000000000000000000000000000000006020830152604082019050919050565b60006136f9602c83613f0c565b91507f4552433732314d657461646174613a2055524920736574206f66206e6f6e657860008301527f697374656e7420746f6b656e00000000000000000000000000000000000000006020830152604082019050919050565b600061375f602083613f0c565b91507f4f776e61626c653a2063616c6c6572206973206e6f7420746865206f776e65726000830152602082019050919050565b600061379f602983613f0c565b91507f4552433732313a207472616e73666572206f6620746f6b656e2074686174206960008301527f73206e6f74206f776e00000000000000000000000000000000000000000000006020830152604082019050919050565b6000613805602f83613f0c565b91507f4552433732314d657461646174613a2055524920717565727920666f72206e6f60008301527f6e6578697374656e7420746f6b656e00000000000000000000000000000000006020830152604082019050919050565b600061386b602183613f0c565b91507f4552433732313a20617070726f76616c20746f2063757272656e74206f776e6560008301527f72000000000000000000000000000000000000000000000000000000000000006020830152604082019050919050565b60006138d1603183613f0c565b91507f4552433732313a207472616e736665722063616c6c6572206973206e6f74206f60008301527f776e6572206e6f7220617070726f7665640000000000000000000000000000006020830152604082019050919050565b6000613937601d83613f0c565b91507f4d696e74696e67206973206e6f7420616374697661746564207965742e0000006000830152602082019050919050565b6000613977602c83613f0c565b91507f455243373231456e756d657261626c653a20676c6f62616c20696e646578206f60008301527f7574206f6620626f756e647300000000000000000000000000000000000000006020830152604082019050919050565b60006139dd603283613f0c565b91507f43616e6e6f74206d696e742074686973206e756d626572206f6620426162795360008301527f70697269747320696e206f6e6520676f202100000000000000000000000000006020830152604082019050919050565b613a3f816140a7565b82525050565b6000613a518285613159565b9150613a5d8284613159565b91508190509392505050565b6000602082019050613a7e60008301846130c9565b92915050565b6000608082019050613a9960008301876130c9565b613aa660208301866130c9565b613ab36040830185613a36565b8181036060830152613ac581846130e7565b905095945050505050565b6000602082019050613ae560008301846130d8565b92915050565b60006020820190508181036000830152613b058184613120565b905092915050565b60006020820190508181036000830152613b268161318a565b9050919050565b60006020820190508181036000830152613b46816131f0565b9050919050565b60006020820190508181036000830152613b6681613256565b9050919050565b60006020820190508181036000830152613b86816132bc565b9050919050565b60006020820190508181036000830152613ba681613322565b9050919050565b60006020820190508181036000830152613bc681613362565b9050919050565b60006020820190508181036000830152613be6816133c8565b9050919050565b60006020820190508181036000830152613c0681613408565b9050919050565b60006020820190508181036000830152613c268161346e565b9050919050565b60006020820190508181036000830152613c46816134d4565b9050919050565b60006020820190508181036000830152613c668161353a565b9050919050565b60006020820190508181036000830152613c86816135a0565b9050919050565b60006020820190508181036000830152613ca681613606565b9050919050565b60006020820190508181036000830152613cc681613646565b9050919050565b60006020820190508181036000830152613ce681613686565b9050919050565b60006020820190508181036000830152613d06816136ec565b9050919050565b60006020820190508181036000830152613d2681613752565b9050919050565b60006020820190508181036000830152613d4681613792565b9050919050565b60006020820190508181036000830152613d66816137f8565b9050919050565b60006020820190508181036000830152613d868161385e565b9050919050565b60006020820190508181036000830152613da6816138c4565b9050919050565b60006020820190508181036000830152613dc68161392a565b9050919050565b60006020820190508181036000830152613de68161396a565b9050919050565b60006020820190508181036000830152613e06816139d0565b9050919050565b6000602082019050613e226000830184613a36565b92915050565b6000604051905081810181811067ffffffffffffffff82111715613e4f57613e4e61422c565b5b8060405250919050565b600067ffffffffffffffff821115613e7457613e7361422c565b5b602082029050602081019050919050565b600067ffffffffffffffff821115613ea057613e9f61422c565b5b601f19601f8301169050602081019050919050565b600067ffffffffffffffff821115613ed057613ecf61422c565b5b601f19601f8301169050602081019050919050565b600081519050919050565b600081519050919050565b600082825260208201905092915050565b600082825260208201905092915050565b600081905092915050565b6000613f33826140a7565b9150613f3e836140a7565b9250827fffffffffffffffffffffffffffffffffffffffffffffffffffffffffffffffff03821115613f7357613f7261419f565b5b828201905092915050565b6000613f89826140a7565b9150613f94836140a7565b925082613fa457613fa36141ce565b5b828204905092915050565b6000613fba826140a7565b9150613fc5836140a7565b9250817fffffffffffffffffffffffffffffffffffffffffffffffffffffffffffffffff0483118215151615613ffe57613ffd61419f565b5b828202905092915050565b6000614014826140a7565b915061401f836140a7565b9250828210156140325761403161419f565b5b828203905092915050565b600061404882614087565b9050919050565b60008115159050919050565b60007fffffffff0000000000000000000000000000000000000000000000000000000082169050919050565b600073ffffffffffffffffffffffffffffffffffffffff82169050919050565b6000819050919050565b82818337600083830152505050565b60005b838110156140de5780820151818401526020810190506140c3565b838111156140ed576000848401525b50505050565b6000600282049050600182168061410b57607f821691505b6020821081141561411f5761411e6141fd565b5b50919050565b6000614130826140a7565b91507fffffffffffffffffffffffffffffffffffffffffffffffffffffffffffffffff8214156141635761416261419f565b5b600182019050919050565b6000614179826140a7565b9150614184836140a7565b925082614194576141936141ce565b5b828206905092915050565b7f4e487b7100000000000000000000000000000000000000000000000000000000600052601160045260246000fd5b7f4e487b7100000000000000000000000000000000000000000000000000000000600052601260045260246000fd5b7f4e487b7100000000000000000000000000000000000000000000000000000000600052602260045260246000fd5b7f4e487b7100000000000000000000000000000000000000000000000000000000600052604160045260246000fd5b6000601f19601f8301169050919050565b6142758161403d565b811461428057600080fd5b50565b61428c8161404f565b811461429757600080fd5b50565b6142a38161405b565b81146142ae57600080fd5b50565b6142ba816140a7565b81146142c557600080fd5b5056fea264697066735822122047fbc3c371409a0ae67ef9f03296f38bf5d1723d300e2472c303818ded2566a664736f6c63430008000033",
  "linkReferences": {},
  "deployedLinkReferences": {}
}