{
  "_format": "hh-sol-artifact-1",
  "contractName": "BabySpirit",
  "sourceName": "contracts/BabySpirit.sol",
  "abi": [
    {
      "inputs": [
        {
          "internalType": "string",
          "name": "name",
          "type": "string"
        },
        {
          "internalType": "string",
          "name": "symbol",
          "type": "string"
        },
        {
          "internalType": "string",
          "name": "baseURI",
          "type": "string"
        },
        {
          "internalType": "uint256",
          "name": "maxSupply",
          "type": "uint256"
        }
      ],
      "stateMutability": "nonpayable",
      "type": "constructor"
    },
    {
      "anonymous": false,
      "inputs": [
        {
          "indexed": true,
          "internalType": "address",
          "name": "owner",
          "type": "address"
        },
        {
          "indexed": true,
          "internalType": "address",
          "name": "approved",
          "type": "address"
        },
        {
          "indexed": true,
          "internalType": "uint256",
          "name": "tokenId",
          "type": "uint256"
        }
      ],
      "name": "Approval",
      "type": "event"
    },
    {
      "anonymous": false,
      "inputs": [
        {
          "indexed": true,
          "internalType": "address",
          "name": "owner",
          "type": "address"
        },
        {
          "indexed": true,
          "internalType": "address",
          "name": "operator",
          "type": "address"
        },
        {
          "indexed": false,
          "internalType": "bool",
          "name": "approved",
          "type": "bool"
        }
      ],
      "name": "ApprovalForAll",
      "type": "event"
    },
    {
      "anonymous": false,
      "inputs": [
        {
          "indexed": true,
          "internalType": "address",
          "name": "previousOwner",
          "type": "address"
        },
        {
          "indexed": true,
          "internalType": "address",
          "name": "newOwner",
          "type": "address"
        }
      ],
      "name": "OwnershipTransferred",
      "type": "event"
    },
    {
      "anonymous": false,
      "inputs": [
        {
          "indexed": true,
          "internalType": "address",
          "name": "from",
          "type": "address"
        },
        {
          "indexed": true,
          "internalType": "address",
          "name": "to",
          "type": "address"
        },
        {
          "indexed": true,
          "internalType": "uint256",
          "name": "tokenId",
          "type": "uint256"
        }
      ],
      "name": "Transfer",
      "type": "event"
    },
    {
      "inputs": [
        {
          "internalType": "address",
          "name": "to",
          "type": "address"
        },
        {
          "internalType": "uint256",
          "name": "tokenId",
          "type": "uint256"
        }
      ],
      "name": "approve",
      "outputs": [],
      "stateMutability": "nonpayable",
      "type": "function"
    },
    {
      "inputs": [],
      "name": "babySpiritPrice",
      "outputs": [
        {
          "internalType": "uint256",
          "name": "",
          "type": "uint256"
        }
      ],
      "stateMutability": "view",
      "type": "function"
    },
    {
      "inputs": [
        {
          "internalType": "address",
          "name": "owner",
          "type": "address"
        }
      ],
      "name": "balanceOf",
      "outputs": [
        {
          "internalType": "uint256",
          "name": "",
          "type": "uint256"
        }
      ],
      "stateMutability": "view",
      "type": "function"
    },
    {
      "inputs": [
        {
          "internalType": "uint256",
          "name": "tokenId",
          "type": "uint256"
        }
      ],
      "name": "getApproved",
      "outputs": [
        {
          "internalType": "address",
          "name": "",
          "type": "address"
        }
      ],
      "stateMutability": "view",
      "type": "function"
    },
    {
      "inputs": [
        {
          "internalType": "address",
          "name": "owner",
          "type": "address"
        },
        {
          "internalType": "address",
          "name": "operator",
          "type": "address"
        }
      ],
      "name": "isApprovedForAll",
      "outputs": [
        {
          "internalType": "bool",
          "name": "",
          "type": "bool"
        }
      ],
      "stateMutability": "view",
      "type": "function"
    },
    {
      "inputs": [],
      "name": "maxBabySpirit",
      "outputs": [
        {
          "internalType": "uint256",
          "name": "",
          "type": "uint256"
        }
      ],
      "stateMutability": "view",
      "type": "function"
    },
    {
      "inputs": [],
      "name": "maxBabySpiritPerMint",
      "outputs": [
        {
          "internalType": "uint256",
          "name": "",
          "type": "uint256"
        }
      ],
      "stateMutability": "view",
      "type": "function"
    },
    {
      "inputs": [
        {
          "internalType": "uint256",
          "name": "quantity",
          "type": "uint256"
        },
        {
          "internalType": "string[]",
          "name": "_tokenURIArray",
          "type": "string[]"
        }
      ],
      "name": "mintBabySpirit",
      "outputs": [],
      "stateMutability": "payable",
      "type": "function"
    },
    {
      "inputs": [],
      "name": "mintingActive",
      "outputs": [
        {
          "internalType": "bool",
          "name": "",
          "type": "bool"
        }
      ],
      "stateMutability": "view",
      "type": "function"
    },
    {
      "inputs": [],
      "name": "name",
      "outputs": [
        {
          "internalType": "string",
          "name": "",
          "type": "string"
        }
      ],
      "stateMutability": "view",
      "type": "function"
    },
    {
      "inputs": [],
      "name": "owner",
      "outputs": [
        {
          "internalType": "address",
          "name": "",
          "type": "address"
        }
      ],
      "stateMutability": "view",
      "type": "function"
    },
    {
      "inputs": [
        {
          "internalType": "uint256",
          "name": "tokenId",
          "type": "uint256"
        }
      ],
      "name": "ownerOf",
      "outputs": [
        {
          "internalType": "address",
          "name": "",
          "type": "address"
        }
      ],
      "stateMutability": "view",
      "type": "function"
    },
    {
      "inputs": [],
      "name": "renounceOwnership",
      "outputs": [],
      "stateMutability": "nonpayable",
      "type": "function"
    },
    {
      "inputs": [
        {
          "internalType": "uint256",
          "name": "quantity",
          "type": "uint256"
        },
        {
          "internalType": "string[]",
          "name": "_tokenURIArray",
          "type": "string[]"
        }
      ],
      "name": "reserveBabySpirits",
      "outputs": [],
      "stateMutability": "nonpayable",
      "type": "function"
    },
    {
      "inputs": [
        {
          "internalType": "address",
          "name": "from",
          "type": "address"
        },
        {
          "internalType": "address",
          "name": "to",
          "type": "address"
        },
        {
          "internalType": "uint256",
          "name": "tokenId",
          "type": "uint256"
        }
      ],
      "name": "safeTransferFrom",
      "outputs": [],
      "stateMutability": "nonpayable",
      "type": "function"
    },
    {
      "inputs": [
        {
          "internalType": "address",
          "name": "from",
          "type": "address"
        },
        {
          "internalType": "address",
          "name": "to",
          "type": "address"
        },
        {
          "internalType": "uint256",
          "name": "tokenId",
          "type": "uint256"
        },
        {
          "internalType": "bytes",
          "name": "_data",
          "type": "bytes"
        }
      ],
      "name": "safeTransferFrom",
      "outputs": [],
      "stateMutability": "nonpayable",
      "type": "function"
    },
    {
      "inputs": [
        {
          "internalType": "address",
          "name": "operator",
          "type": "address"
        },
        {
          "internalType": "bool",
          "name": "approved",
          "type": "bool"
        }
      ],
      "name": "setApprovalForAll",
      "outputs": [],
      "stateMutability": "nonpayable",
      "type": "function"
    },
    {
      "inputs": [
        {
          "internalType": "string",
          "name": "baseURI",
          "type": "string"
        }
      ],
      "name": "setBaseURI",
      "outputs": [],
      "stateMutability": "nonpayable",
      "type": "function"
    },
    {
      "inputs": [
        {
          "internalType": "uint256",
          "name": "quantity",
          "type": "uint256"
        }
      ],
      "name": "setMaxQuantityPerMint",
      "outputs": [],
      "stateMutability": "nonpayable",
      "type": "function"
    },
    {
      "inputs": [
        {
          "internalType": "bytes4",
          "name": "interfaceId",
          "type": "bytes4"
        }
      ],
      "name": "supportsInterface",
      "outputs": [
        {
          "internalType": "bool",
          "name": "",
          "type": "bool"
        }
      ],
      "stateMutability": "view",
      "type": "function"
    },
    {
      "inputs": [],
      "name": "switchMinting",
      "outputs": [],
      "stateMutability": "nonpayable",
      "type": "function"
    },
    {
      "inputs": [],
      "name": "symbol",
      "outputs": [
        {
          "internalType": "string",
          "name": "",
          "type": "string"
        }
      ],
      "stateMutability": "view",
      "type": "function"
    },
    {
      "inputs": [
        {
          "internalType": "uint256",
          "name": "index",
          "type": "uint256"
        }
      ],
      "name": "tokenByIndex",
      "outputs": [
        {
          "internalType": "uint256",
          "name": "",
          "type": "uint256"
        }
      ],
      "stateMutability": "view",
      "type": "function"
    },
    {
      "inputs": [
        {
          "internalType": "address",
          "name": "owner",
          "type": "address"
        },
        {
          "internalType": "uint256",
          "name": "index",
          "type": "uint256"
        }
      ],
      "name": "tokenOfOwnerByIndex",
      "outputs": [
        {
          "internalType": "uint256",
          "name": "",
          "type": "uint256"
        }
      ],
      "stateMutability": "view",
      "type": "function"
    },
    {
      "inputs": [
        {
          "internalType": "uint256",
          "name": "tokenId",
          "type": "uint256"
        }
      ],
      "name": "tokenURI",
      "outputs": [
        {
          "internalType": "string",
          "name": "",
          "type": "string"
        }
      ],
      "stateMutability": "view",
      "type": "function"
    },
    {
      "inputs": [
        {
          "internalType": "address",
          "name": "_owner",
          "type": "address"
        }
      ],
      "name": "tokensOfOwner",
      "outputs": [
        {
          "internalType": "uint256[]",
          "name": "",
          "type": "uint256[]"
        }
      ],
      "stateMutability": "view",
      "type": "function"
    },
    {
      "inputs": [],
      "name": "totalSupply",
      "outputs": [
        {
          "internalType": "uint256",
          "name": "",
          "type": "uint256"
        }
      ],
      "stateMutability": "view",
      "type": "function"
    },
    {
      "inputs": [
        {
          "internalType": "address",
          "name": "from",
          "type": "address"
        },
        {
          "internalType": "address",
          "name": "to",
          "type": "address"
        },
        {
          "internalType": "uint256",
          "name": "tokenId",
          "type": "uint256"
        }
      ],
      "name": "transferFrom",
      "outputs": [],
      "stateMutability": "nonpayable",
      "type": "function"
    },
    {
      "inputs": [
        {
          "internalType": "address",
          "name": "newOwner",
          "type": "address"
        }
      ],
      "name": "transferOwnership",
      "outputs": [],
      "stateMutability": "nonpayable",
      "type": "function"
    },
    {
      "inputs": [],
      "name": "withdrawBalance",
      "outputs": [],
      "stateMutability": "nonpayable",
      "type": "function"
    }
  ],
  "bytecode": "0x608060405260405180602001604052806000815250600b90805190602001906200002b92919062000277565b506103e8600d55670de0b6b3a7640000600e55600a600f556000601060006101000a81548160ff0219169083151502179055503480156200006b57600080fd5b5060405162004be338038062004be38339818101604052810190620000919190620003b0565b83838160009080519060200190620000ab92919062000277565b508060019080519060200190620000c492919062000277565b5050506000620000d9620001ac60201b60201c565b905080600a60006101000a81548173ffffffffffffffffffffffffffffffffffffffff021916908373ffffffffffffffffffffffffffffffffffffffff1602179055508073ffffffffffffffffffffffffffffffffffffffff16600073ffffffffffffffffffffffffffffffffffffffff167f8be0079c531659141344cd1fd0a4f28419497f9722a3daafe3b4186f6b6457e060405160405180910390a35081600b90805190602001906200019092919062000277565b50620001a281620001b460201b60201c565b5050505062000631565b600033905090565b620001c4620001ac60201b60201c565b73ffffffffffffffffffffffffffffffffffffffff16620001ea6200024d60201b60201c565b73ffffffffffffffffffffffffffffffffffffffff161462000243576040517f08c379a00000000000000000000000000000000000000000000000000000000081526004016200023a90620004a9565b60405180910390fd5b80600d8190555050565b6000600a60009054906101000a900473ffffffffffffffffffffffffffffffffffffffff16905090565b828054620002859062000583565b90600052602060002090601f016020900481019282620002a95760008555620002f5565b82601f10620002c457805160ff1916838001178555620002f5565b82800160010185558215620002f5579182015b82811115620002f4578251825591602001919060010190620002d7565b5b50905062000304919062000308565b5090565b5b808211156200032357600081600090555060010162000309565b5090565b60006200033e6200033884620004ff565b620004cb565b9050828152602081018484840111156200035757600080fd5b620003648482856200054d565b509392505050565b600082601f8301126200037e57600080fd5b81516200039084826020860162000327565b91505092915050565b600081519050620003aa8162000617565b92915050565b60008060008060808587031215620003c757600080fd5b600085015167ffffffffffffffff811115620003e257600080fd5b620003f0878288016200036c565b945050602085015167ffffffffffffffff8111156200040e57600080fd5b6200041c878288016200036c565b935050604085015167ffffffffffffffff8111156200043a57600080fd5b62000448878288016200036c565b92505060606200045b8782880162000399565b91505092959194509250565b60006200047660208362000532565b91507f4f776e61626c653a2063616c6c6572206973206e6f7420746865206f776e65726000830152602082019050919050565b60006020820190508181036000830152620004c48162000467565b9050919050565b6000604051905081810181811067ffffffffffffffff82111715620004f557620004f4620005e8565b5b8060405250919050565b600067ffffffffffffffff8211156200051d576200051c620005e8565b5b601f19601f8301169050602081019050919050565b600082825260208201905092915050565b6000819050919050565b60005b838110156200056d57808201518184015260208101905062000550565b838111156200057d576000848401525b50505050565b600060028204905060018216806200059c57607f821691505b60208210811415620005b357620005b2620005b9565b5b50919050565b7f4e487b7100000000000000000000000000000000000000000000000000000000600052602260045260246000fd5b7f4e487b7100000000000000000000000000000000000000000000000000000000600052604160045260246000fd5b620006228162000543565b81146200062e57600080fd5b50565b6145a280620006416000396000f3fe6080604052600436106101cc5760003560e01c80635e461821116100f75780638da5cb5b11610095578063c87b56dd11610064578063c87b56dd14610652578063e1eb17b81461068f578063e985e9c5146106ba578063f2fde38b146106f7576101cc565b80638da5cb5b146105aa57806395d89b41146105d5578063a22cb46514610600578063b88d4fde14610629576101cc565b806370a08231116100d157806370a08231146104ee578063715018a61461052b57806372bacf29146105425780638462151c1461056d576101cc565b80635e4618211461046f5780635fd8c7101461049a5780636352211e146104b1576101cc565b8063290b2a0f1161016f57806342842e0e1161013e57806342842e0e146103c45780634b52ca2f146103ed5780634f6ccce71461040957806355f804b314610446576101cc565b8063290b2a0f1461031c5780632f745c591461034557806331f9c919146103825780633b6ccee7146103ad576101cc565b8063081812fc116101ab578063081812fc14610262578063095ea7b31461029f57806318160ddd146102c857806323b872dd146102f3576101cc565b8062ecb290146101d157806301ffc9a7146101fa57806306fdde0314610237575b600080fd5b3480156101dd57600080fd5b506101f860048036038101906101f39190613239565b610720565b005b34801561020657600080fd5b50610221600480360381019061021c919061317d565b61082b565b60405161022e9190613d3b565b60405180910390f35b34801561024357600080fd5b5061024c6108a5565b6040516102599190613d56565b60405180910390f35b34801561026e57600080fd5b5061028960048036038101906102849190613210565b610937565b6040516102969190613cb2565b60405180910390f35b3480156102ab57600080fd5b506102c660048036038101906102c19190613141565b6109bc565b005b3480156102d457600080fd5b506102dd610ad4565b6040516102ea9190614078565b60405180910390f35b3480156102ff57600080fd5b5061031a6004803603810190610315919061303b565b610ae1565b005b34801561032857600080fd5b50610343600480360381019061033e9190613210565b610b41565b005b34801561035157600080fd5b5061036c60048036038101906103679190613141565b610bc7565b6040516103799190614078565b60405180910390f35b34801561038e57600080fd5b50610397610c6c565b6040516103a49190613d3b565b60405180910390f35b3480156103b957600080fd5b506103c2610c7f565b005b3480156103d057600080fd5b506103eb60048036038101906103e6919061303b565b610d27565b005b61040760048036038101906104029190613239565b610d47565b005b34801561041557600080fd5b50610430600480360381019061042b9190613210565b610f69565b60405161043d9190614078565b60405180910390f35b34801561045257600080fd5b5061046d600480360381019061046891906131cf565b611000565b005b34801561047b57600080fd5b50610484611096565b6040516104919190614078565b60405180910390f35b3480156104a657600080fd5b506104af61109c565b005b3480156104bd57600080fd5b506104d860048036038101906104d39190613210565b611167565b6040516104e59190613cb2565b60405180910390f35b3480156104fa57600080fd5b5061051560048036038101906105109190612fd6565b611219565b6040516105229190614078565b60405180910390f35b34801561053757600080fd5b506105406112d1565b005b34801561054e57600080fd5b5061055761140e565b6040516105649190614078565b60405180910390f35b34801561057957600080fd5b50610594600480360381019061058f9190612fd6565b611414565b6040516105a19190613d19565b60405180910390f35b3480156105b657600080fd5b506105bf611590565b6040516105cc9190613cb2565b60405180910390f35b3480156105e157600080fd5b506105ea6115ba565b6040516105f79190613d56565b60405180910390f35b34801561060c57600080fd5b5061062760048036038101906106229190613105565b61164c565b005b34801561063557600080fd5b50610650600480360381019061064b919061308a565b6117cd565b005b34801561065e57600080fd5b5061067960048036038101906106749190613210565b61182f565b6040516106869190613d56565b60405180910390f35b34801561069b57600080fd5b506106a46119a2565b6040516106b19190614078565b60405180910390f35b3480156106c657600080fd5b506106e160048036038101906106dc9190612fff565b6119a8565b6040516106ee9190613d3b565b60405180910390f35b34801561070357600080fd5b5061071e60048036038101906107199190612fd6565b611a3c565b005b610728611be8565b73ffffffffffffffffffffffffffffffffffffffff16610746611590565b73ffffffffffffffffffffffffffffffffffffffff161461079c576040517f08c379a000000000000000000000000000000000000000000000000000000000815260040161079390613f58565b60405180910390fd5b60005b828110156108265760006107b1610ad4565b9050600d54811015610812576107c73382611bf0565b61081181848481518110610804577f4e487b7100000000000000000000000000000000000000000000000000000000600052603260045260246000fd5b6020026020010151611c0e565b5b50808061081e906143c9565b91505061079f565b505050565b60007f780e9d63000000000000000000000000000000000000000000000000000000007bffffffffffffffffffffffffffffffffffffffffffffffffffffffff1916827bffffffffffffffffffffffffffffffffffffffffffffffffffffffff1916148061089e575061089d82611c82565b5b9050919050565b6060600080546108b490614397565b80601f01602080910402602001604051908101604052809291908181526020018280546108e090614397565b801561092d5780601f106109025761010080835404028352916020019161092d565b820191906000526020600020905b81548152906001019060200180831161091057829003601f168201915b5050505050905090565b600061094282611d64565b610981576040517f08c379a000000000000000000000000000000000000000000000000000000000815260040161097890613f18565b60405180910390fd5b6004600083815260200190815260200160002060009054906101000a900473ffffffffffffffffffffffffffffffffffffffff169050919050565b60006109c782611167565b90508073ffffffffffffffffffffffffffffffffffffffff168373ffffffffffffffffffffffffffffffffffffffff161415610a38576040517f08c379a0000000000000000000000000000000000000000000000000000000008152600401610a2f90613fb8565b60405180910390fd5b8073ffffffffffffffffffffffffffffffffffffffff16610a57611be8565b73ffffffffffffffffffffffffffffffffffffffff161480610a865750610a8581610a80611be8565b6119a8565b5b610ac5576040517f08c379a0000000000000000000000000000000000000000000000000000000008152600401610abc90613e78565b60405180910390fd5b610acf8383611dd0565b505050565b6000600880549050905090565b610af2610aec611be8565b82611e89565b610b31576040517f08c379a0000000000000000000000000000000000000000000000000000000008152600401610b2890613fd8565b60405180910390fd5b610b3c838383611f67565b505050565b610b49611be8565b73ffffffffffffffffffffffffffffffffffffffff16610b67611590565b73ffffffffffffffffffffffffffffffffffffffff1614610bbd576040517f08c379a0000000000000000000000000000000000000000000000000000000008152600401610bb490613f58565b60405180910390fd5b80600f8190555050565b6000610bd283611219565b8210610c13576040517f08c379a0000000000000000000000000000000000000000000000000000000008152600401610c0a90613d78565b60405180910390fd5b600660008473ffffffffffffffffffffffffffffffffffffffff1673ffffffffffffffffffffffffffffffffffffffff168152602001908152602001600020600083815260200190815260200160002054905092915050565b601060009054906101000a900460ff1681565b610c87611be8565b73ffffffffffffffffffffffffffffffffffffffff16610ca5611590565b73ffffffffffffffffffffffffffffffffffffffff1614610cfb576040517f08c379a0000000000000000000000000000000000000000000000000000000008152600401610cf290613f58565b60405180910390fd5b601060009054906101000a900460ff1615601060006101000a81548160ff021916908315150217905550565b610d42838383604051806020016040528060008152506117cd565b505050565b601060009054906101000a900460ff16610d96576040517f08c379a0000000000000000000000000000000000000000000000000000000008152600401610d8d90613ff8565b60405180910390fd5b60008211610dd9576040517f08c379a0000000000000000000000000000000000000000000000000000000008152600401610dd090614058565b60405180910390fd5b600d54610df683610de8610ad4565b6121c590919063ffffffff16565b1115610e37576040517f08c379a0000000000000000000000000000000000000000000000000000000008152600401610e2e90613e38565b60405180910390fd5b600f54821115610e7c576040517f08c379a0000000000000000000000000000000000000000000000000000000008152600401610e7390614038565b60405180910390fd5b34610e9283600e546121db90919063ffffffff16565b1115610ed3576040517f08c379a0000000000000000000000000000000000000000000000000000000008152600401610eca90613ef8565b60405180910390fd5b60005b82811015610f64576000610ee8610ad4565b9050600d54610ef5610ad4565b1015610f5057610f053382611bf0565b610f4f81848481518110610f42577f4e487b7100000000000000000000000000000000000000000000000000000000600052603260045260246000fd5b6020026020010151611c0e565b5b508080610f5c906143c9565b915050610ed6565b505050565b6000610f73610ad4565b8210610fb4576040517f08c379a0000000000000000000000000000000000000000000000000000000008152600401610fab90614018565b60405180910390fd5b60088281548110610fee577f4e487b7100000000000000000000000000000000000000000000000000000000600052603260045260246000fd5b90600052602060002001549050919050565b611008611be8565b73ffffffffffffffffffffffffffffffffffffffff16611026611590565b73ffffffffffffffffffffffffffffffffffffffff161461107c576040517f08c379a000000000000000000000000000000000000000000000000000000000815260040161107390613f58565b60405180910390fd5b80600b9080519060200190611092929190612d73565b5050565b600e5481565b6110a4611be8565b73ffffffffffffffffffffffffffffffffffffffff166110c2611590565b73ffffffffffffffffffffffffffffffffffffffff1614611118576040517f08c379a000000000000000000000000000000000000000000000000000000000815260040161110f90613f58565b60405180910390fd5b60004790503373ffffffffffffffffffffffffffffffffffffffff166108fc829081150290604051600060405180830381858888f19350505050158015611163573d6000803e3d6000fd5b5050565b6000806002600084815260200190815260200160002060009054906101000a900473ffffffffffffffffffffffffffffffffffffffff169050600073ffffffffffffffffffffffffffffffffffffffff168173ffffffffffffffffffffffffffffffffffffffff161415611210576040517f08c379a000000000000000000000000000000000000000000000000000000000815260040161120790613eb8565b60405180910390fd5b80915050919050565b60008073ffffffffffffffffffffffffffffffffffffffff168273ffffffffffffffffffffffffffffffffffffffff16141561128a576040517f08c379a000000000000000000000000000000000000000000000000000000000815260040161128190613e98565b60405180910390fd5b600360008373ffffffffffffffffffffffffffffffffffffffff1673ffffffffffffffffffffffffffffffffffffffff168152602001908152602001600020549050919050565b6112d9611be8565b73ffffffffffffffffffffffffffffffffffffffff166112f7611590565b73ffffffffffffffffffffffffffffffffffffffff161461134d576040517f08c379a000000000000000000000000000000000000000000000000000000000815260040161134490613f58565b60405180910390fd5b600073ffffffffffffffffffffffffffffffffffffffff16600a60009054906101000a900473ffffffffffffffffffffffffffffffffffffffff1673ffffffffffffffffffffffffffffffffffffffff167f8be0079c531659141344cd1fd0a4f28419497f9722a3daafe3b4186f6b6457e060405160405180910390a36000600a60006101000a81548173ffffffffffffffffffffffffffffffffffffffff021916908373ffffffffffffffffffffffffffffffffffffffff160217905550565b600f5481565b6060600061142183611219565b905060008114156114a457600067ffffffffffffffff81111561146d577f4e487b7100000000000000000000000000000000000000000000000000000000600052604160045260246000fd5b60405190808252806020026020018201604052801561149b5781602001602082028036833780820191505090505b5091505061158b565b60008167ffffffffffffffff8111156114e6577f4e487b7100000000000000000000000000000000000000000000000000000000600052604160045260246000fd5b6040519080825280602002602001820160405280156115145781602001602082028036833780820191505090505b50905060005b828110156115845761152c8582610bc7565b828281518110611565577f4e487b7100000000000000000000000000000000000000000000000000000000600052603260045260246000fd5b602002602001018181525050808061157c906143c9565b91505061151a565b5080925050505b919050565b6000600a60009054906101000a900473ffffffffffffffffffffffffffffffffffffffff16905090565b6060600180546115c990614397565b80601f01602080910402602001604051908101604052809291908181526020018280546115f590614397565b80156116425780601f1061161757610100808354040283529160200191611642565b820191906000526020600020905b81548152906001019060200180831161162557829003601f168201915b5050505050905090565b611654611be8565b73ffffffffffffffffffffffffffffffffffffffff168273ffffffffffffffffffffffffffffffffffffffff1614156116c2576040517f08c379a00000000000000000000000000000000000000000000000000000000081526004016116b990613e18565b60405180910390fd5b80600560006116cf611be8565b73ffffffffffffffffffffffffffffffffffffffff1673ffffffffffffffffffffffffffffffffffffffff16815260200190815260200160002060008473ffffffffffffffffffffffffffffffffffffffff1673ffffffffffffffffffffffffffffffffffffffff16815260200190815260200160002060006101000a81548160ff0219169083151502179055508173ffffffffffffffffffffffffffffffffffffffff1661177c611be8565b73ffffffffffffffffffffffffffffffffffffffff167f17307eab39ab6107e8899845ad3d59bd9653f200f220920489ca2b5937696c31836040516117c19190613d3b565b60405180910390a35050565b6117de6117d8611be8565b83611e89565b61181d576040517f08c379a000000000000000000000000000000000000000000000000000000000815260040161181490613fd8565b60405180910390fd5b611829848484846121f1565b50505050565b606061183a82611d64565b611879576040517f08c379a000000000000000000000000000000000000000000000000000000000815260040161187090613f98565b60405180910390fd5b6000600c6000848152602001908152602001600020805461189990614397565b80601f01602080910402602001604051908101604052809291908181526020018280546118c590614397565b80156119125780601f106118e757610100808354040283529160200191611912565b820191906000526020600020905b8154815290600101906020018083116118f557829003601f168201915b50505050509050600061192361224d565b905060008151141561193957819250505061199d565b60008251111561196e578082604051602001611956929190613c8e565b6040516020818303038152906040529250505061199d565b80611978856122df565b604051602001611989929190613c8e565b604051602081830303815290604052925050505b919050565b600d5481565b6000600560008473ffffffffffffffffffffffffffffffffffffffff1673ffffffffffffffffffffffffffffffffffffffff16815260200190815260200160002060008373ffffffffffffffffffffffffffffffffffffffff1673ffffffffffffffffffffffffffffffffffffffff16815260200190815260200160002060009054906101000a900460ff16905092915050565b611a44611be8565b73ffffffffffffffffffffffffffffffffffffffff16611a62611590565b73ffffffffffffffffffffffffffffffffffffffff1614611ab8576040517f08c379a0000000000000000000000000000000000000000000000000000000008152600401611aaf90613f58565b60405180910390fd5b600073ffffffffffffffffffffffffffffffffffffffff168173ffffffffffffffffffffffffffffffffffffffff161415611b28576040517f08c379a0000000000000000000000000000000000000000000000000000000008152600401611b1f90613db8565b60405180910390fd5b8073ffffffffffffffffffffffffffffffffffffffff16600a60009054906101000a900473ffffffffffffffffffffffffffffffffffffffff1673ffffffffffffffffffffffffffffffffffffffff167f8be0079c531659141344cd1fd0a4f28419497f9722a3daafe3b4186f6b6457e060405160405180910390a380600a60006101000a81548173ffffffffffffffffffffffffffffffffffffffff021916908373ffffffffffffffffffffffffffffffffffffffff16021790555050565b600033905090565b611c0a82826040518060200160405280600081525061248c565b5050565b611c1782611d64565b611c56576040517f08c379a0000000000000000000000000000000000000000000000000000000008152600401611c4d90613f38565b60405180910390fd5b80600c60008481526020019081526020016000209080519060200190611c7d929190612d73565b505050565b60007f80ac58cd000000000000000000000000000000000000000000000000000000007bffffffffffffffffffffffffffffffffffffffffffffffffffffffff1916827bffffffffffffffffffffffffffffffffffffffffffffffffffffffff19161480611d4d57507f5b5e139f000000000000000000000000000000000000000000000000000000007bffffffffffffffffffffffffffffffffffffffffffffffffffffffff1916827bffffffffffffffffffffffffffffffffffffffffffffffffffffffff1916145b80611d5d5750611d5c826124e7565b5b9050919050565b60008073ffffffffffffffffffffffffffffffffffffffff166002600084815260200190815260200160002060009054906101000a900473ffffffffffffffffffffffffffffffffffffffff1673ffffffffffffffffffffffffffffffffffffffff1614159050919050565b816004600083815260200190815260200160002060006101000a81548173ffffffffffffffffffffffffffffffffffffffff021916908373ffffffffffffffffffffffffffffffffffffffff160217905550808273ffffffffffffffffffffffffffffffffffffffff16611e4383611167565b73ffffffffffffffffffffffffffffffffffffffff167f8c5be1e5ebec7d5bd14f71427d1e84f3dd0314c0f7b2291e5b200ac8c7c3b92560405160405180910390a45050565b6000611e9482611d64565b611ed3576040517f08c379a0000000000000000000000000000000000000000000000000000000008152600401611eca90613e58565b60405180910390fd5b6000611ede83611167565b90508073ffffffffffffffffffffffffffffffffffffffff168473ffffffffffffffffffffffffffffffffffffffff161480611f4d57508373ffffffffffffffffffffffffffffffffffffffff16611f3584610937565b73ffffffffffffffffffffffffffffffffffffffff16145b80611f5e5750611f5d81856119a8565b5b91505092915050565b8273ffffffffffffffffffffffffffffffffffffffff16611f8782611167565b73ffffffffffffffffffffffffffffffffffffffff1614611fdd576040517f08c379a0000000000000000000000000000000000000000000000000000000008152600401611fd490613f78565b60405180910390fd5b600073ffffffffffffffffffffffffffffffffffffffff168273ffffffffffffffffffffffffffffffffffffffff16141561204d576040517f08c379a000000000000000000000000000000000000000000000000000000000815260040161204490613df8565b60405180910390fd5b61205a8383836001612551565b612065600082611dd0565b6001600360008573ffffffffffffffffffffffffffffffffffffffff1673ffffffffffffffffffffffffffffffffffffffff16815260200190815260200160002060008282546120b591906142ad565b925050819055506001600360008473ffffffffffffffffffffffffffffffffffffffff1673ffffffffffffffffffffffffffffffffffffffff168152602001908152602001600020600082825461210c91906141cc565b92505081905550816002600083815260200190815260200160002060006101000a81548173ffffffffffffffffffffffffffffffffffffffff021916908373ffffffffffffffffffffffffffffffffffffffff160217905550808273ffffffffffffffffffffffffffffffffffffffff168473ffffffffffffffffffffffffffffffffffffffff167fddf252ad1be2c89b69c2b068fc378daa952ba7f163c4a11628f55a4df523b3ef60405160405180910390a4505050565b600081836121d391906141cc565b905092915050565b600081836121e99190614253565b905092915050565b6121fc848484611f67565b6122088484848461267b565b612247576040517f08c379a000000000000000000000000000000000000000000000000000000000815260040161223e90613d98565b60405180910390fd5b50505050565b6060600b805461225c90614397565b80601f016020809104026020016040519081016040528092919081815260200182805461228890614397565b80156122d55780601f106122aa576101008083540402835291602001916122d5565b820191906000526020600020905b8154815290600101906020018083116122b857829003601f168201915b5050505050905090565b60606000821415612327576040518060400160405280600181526020017f30000000000000000000000000000000000000000000000000000000000000008152509050612487565b600082905060005b60008214612359578080612342906143c9565b915050600a826123529190614222565b915061232f565b60008167ffffffffffffffff81111561239b577f4e487b7100000000000000000000000000000000000000000000000000000000600052604160045260246000fd5b6040519080825280601f01601f1916602001820160405280156123cd5781602001600182028036833780820191505090505b5090505b60008514612480576001826123e691906142ad565b9150600a856123f59190614412565b603061240191906141cc565b60f81b81838151811061243d577f4e487b7100000000000000000000000000000000000000000000000000000000600052603260045260246000fd5b60200101907effffffffffffffffffffffffffffffffffffffffffffffffffffffffffffff1916908160001a905350600a856124799190614222565b94506123d1565b8093505050505b919050565b6124968383612812565b6124a3600084848461267b565b6124e2576040517f08c379a00000000000000000000000000000000000000000000000000000000081526004016124d990613d98565b60405180910390fd5b505050565b60007f01ffc9a7000000000000000000000000000000000000000000000000000000007bffffffffffffffffffffffffffffffffffffffffffffffffffffffff1916827bffffffffffffffffffffffffffffffffffffffffffffffffffffffff1916149050919050565b61255d848484846129e2565b600073ffffffffffffffffffffffffffffffffffffffff168473ffffffffffffffffffffffffffffffffffffffff1614156125a05761259b826129e8565b6125df565b8273ffffffffffffffffffffffffffffffffffffffff168473ffffffffffffffffffffffffffffffffffffffff16146125de576125dd8483612a31565b5b5b600073ffffffffffffffffffffffffffffffffffffffff168373ffffffffffffffffffffffffffffffffffffffff161480156126185750805b1561262b5761262682612b9e565b612675565b8373ffffffffffffffffffffffffffffffffffffffff168373ffffffffffffffffffffffffffffffffffffffff16141580156126645750805b15612674576126738383612ce1565b5b5b50505050565b600061269c8473ffffffffffffffffffffffffffffffffffffffff16612d60565b15612805578373ffffffffffffffffffffffffffffffffffffffff1663150b7a026126c5611be8565b8786866040518563ffffffff1660e01b81526004016126e79493929190613ccd565b602060405180830381600087803b15801561270157600080fd5b505af192505050801561273257506040513d601f19601f8201168201806040525081019061272f91906131a6565b60015b6127b5573d8060008114612762576040519150601f19603f3d011682016040523d82523d6000602084013e612767565b606091505b506000815114156127ad576040517f08c379a00000000000000000000000000000000000000000000000000000000081526004016127a490613d98565b60405180910390fd5b805181602001fd5b63150b7a0260e01b7bffffffffffffffffffffffffffffffffffffffffffffffffffffffff1916817bffffffffffffffffffffffffffffffffffffffffffffffffffffffff19161491505061280a565b600190505b949350505050565b600073ffffffffffffffffffffffffffffffffffffffff168273ffffffffffffffffffffffffffffffffffffffff161415612882576040517f08c379a000000000000000000000000000000000000000000000000000000000815260040161287990613ed8565b60405180910390fd5b61288b81611d64565b156128cb576040517f08c379a00000000000000000000000000000000000000000000000000000000081526004016128c290613dd8565b60405180910390fd5b6128d9600083836001612551565b6001600360008473ffffffffffffffffffffffffffffffffffffffff1673ffffffffffffffffffffffffffffffffffffffff168152602001908152602001600020600082825461292991906141cc565b92505081905550816002600083815260200190815260200160002060006101000a81548173ffffffffffffffffffffffffffffffffffffffff021916908373ffffffffffffffffffffffffffffffffffffffff160217905550808273ffffffffffffffffffffffffffffffffffffffff16600073ffffffffffffffffffffffffffffffffffffffff167fddf252ad1be2c89b69c2b068fc378daa952ba7f163c4a11628f55a4df523b3ef60405160405180910390a45050565b50505050565b6008805490506009600083815260200190815260200160002081905550600881908060018154018082558091505060019003906000526020600020016000909190919091505550565b60006001612a3e84611219565b612a4891906142ad565b9050600060076000848152602001908152602001600020549050818114612b2d576000600660008673ffffffffffffffffffffffffffffffffffffffff1673ffffffffffffffffffffffffffffffffffffffff168152602001908152602001600020600084815260200190815260200160002054905080600660008773ffffffffffffffffffffffffffffffffffffffff1673ffffffffffffffffffffffffffffffffffffffff168152602001908152602001600020600084815260200190815260200160002081905550816007600083815260200190815260200160002081905550505b6007600084815260200190815260200160002060009055600660008573ffffffffffffffffffffffffffffffffffffffff1673ffffffffffffffffffffffffffffffffffffffff16815260200190815260200160002060008381526020019081526020016000206000905550505050565b60006001600880549050612bb291906142ad565b9050600060096000848152602001908152602001600020549050600060088381548110612c08577f4e487b7100000000000000000000000000000000000000000000000000000000600052603260045260246000fd5b906000526020600020015490508060088381548110612c50577f4e487b7100000000000000000000000000000000000000000000000000000000600052603260045260246000fd5b906000526020600020018190555081600960008381526020019081526020016000208190555060096000858152602001908152602001600020600090556008805480612cc5577f4e487b7100000000000000000000000000000000000000000000000000000000600052603160045260246000fd5b6001900381819060005260206000200160009055905550505050565b6000612cec83611219565b905081600660008573ffffffffffffffffffffffffffffffffffffffff1673ffffffffffffffffffffffffffffffffffffffff168152602001908152602001600020600083815260200190815260200160002081905550806007600084815260200190815260200160002081905550505050565b600080823b905060008111915050919050565b828054612d7f90614397565b90600052602060002090601f016020900481019282612da15760008555612de8565b82601f10612dba57805160ff1916838001178555612de8565b82800160010185558215612de8579182015b82811115612de7578251825591602001919060010190612dcc565b5b509050612df59190612df9565b5090565b5b80821115612e12576000816000905550600101612dfa565b5090565b6000612e29612e24846140c4565b614093565b9050808382526020820190508260005b85811015612e695781358501612e4f8882612f97565b845260208401935060208301925050600181019050612e39565b5050509392505050565b6000612e86612e81846140f0565b614093565b905082815260208101848484011115612e9e57600080fd5b612ea9848285614355565b509392505050565b6000612ec4612ebf84614120565b614093565b905082815260208101848484011115612edc57600080fd5b612ee7848285614355565b509392505050565b600081359050612efe81614510565b92915050565b600082601f830112612f1557600080fd5b8135612f25848260208601612e16565b91505092915050565b600081359050612f3d81614527565b92915050565b600081359050612f528161453e565b92915050565b600081519050612f678161453e565b92915050565b600082601f830112612f7e57600080fd5b8135612f8e848260208601612e73565b91505092915050565b600082601f830112612fa857600080fd5b8135612fb8848260208601612eb1565b91505092915050565b600081359050612fd081614555565b92915050565b600060208284031215612fe857600080fd5b6000612ff684828501612eef565b91505092915050565b6000806040838503121561301257600080fd5b600061302085828601612eef565b925050602061303185828601612eef565b9150509250929050565b60008060006060848603121561305057600080fd5b600061305e86828701612eef565b935050602061306f86828701612eef565b925050604061308086828701612fc1565b9150509250925092565b600080600080608085870312156130a057600080fd5b60006130ae87828801612eef565b94505060206130bf87828801612eef565b93505060406130d087828801612fc1565b925050606085013567ffffffffffffffff8111156130ed57600080fd5b6130f987828801612f6d565b91505092959194509250565b6000806040838503121561311857600080fd5b600061312685828601612eef565b925050602061313785828601612f2e565b9150509250929050565b6000806040838503121561315457600080fd5b600061316285828601612eef565b925050602061317385828601612fc1565b9150509250929050565b60006020828403121561318f57600080fd5b600061319d84828501612f43565b91505092915050565b6000602082840312156131b857600080fd5b60006131c684828501612f58565b91505092915050565b6000602082840312156131e157600080fd5b600082013567ffffffffffffffff8111156131fb57600080fd5b61320784828501612f97565b91505092915050565b60006020828403121561322257600080fd5b600061323084828501612fc1565b91505092915050565b6000806040838503121561324c57600080fd5b600061325a85828601612fc1565b925050602083013567ffffffffffffffff81111561327757600080fd5b61328385828601612f04565b9150509250929050565b60006132998383613c70565b60208301905092915050565b6132ae816142e1565b82525050565b60006132bf82614160565b6132c9818561418e565b93506132d483614150565b8060005b838110156133055781516132ec888261328d565b97506132f783614181565b9250506001810190506132d8565b5085935050505092915050565b61331b816142f3565b82525050565b600061332c8261416b565b613336818561419f565b9350613346818560208601614364565b61334f816144ff565b840191505092915050565b600061336582614176565b61336f81856141b0565b935061337f818560208601614364565b613388816144ff565b840191505092915050565b600061339e82614176565b6133a881856141c1565b93506133b8818560208601614364565b80840191505092915050565b60006133d1602b836141b0565b91507f455243373231456e756d657261626c653a206f776e657220696e646578206f7560008301527f74206f6620626f756e64730000000000000000000000000000000000000000006020830152604082019050919050565b60006134376032836141b0565b91507f4552433732313a207472616e7366657220746f206e6f6e20455243373231526560008301527f63656976657220696d706c656d656e74657200000000000000000000000000006020830152604082019050919050565b600061349d6026836141b0565b91507f4f776e61626c653a206e6577206f776e657220697320746865207a65726f206160008301527f64647265737300000000000000000000000000000000000000000000000000006020830152604082019050919050565b6000613503601c836141b0565b91507f4552433732313a20746f6b656e20616c7265616479206d696e746564000000006000830152602082019050919050565b60006135436024836141b0565b91507f4552433732313a207472616e7366657220746f20746865207a65726f2061646460008301527f72657373000000000000000000000000000000000000000000000000000000006020830152604082019050919050565b60006135a96019836141b0565b91507f4552433732313a20617070726f766520746f2063616c6c6572000000000000006000830152602082019050919050565b60006135e96024836141b0565b91507f4f6e6c7920312c3030302042616279537069726974732061726520617661696c60008301527f61626c65000000000000000000000000000000000000000000000000000000006020830152604082019050919050565b600061364f602c836141b0565b91507f4552433732313a206f70657261746f7220717565727920666f72206e6f6e657860008301527f697374656e7420746f6b656e00000000000000000000000000000000000000006020830152604082019050919050565b60006136b56038836141b0565b91507f4552433732313a20617070726f76652063616c6c6572206973206e6f74206f7760008301527f6e6572206e6f7220617070726f76656420666f7220616c6c00000000000000006020830152604082019050919050565b600061371b602a836141b0565b91507f4552433732313a2062616c616e636520717565727920666f7220746865207a6560008301527f726f2061646472657373000000000000000000000000000000000000000000006020830152604082019050919050565b60006137816029836141b0565b91507f4552433732313a206f776e657220717565727920666f72206e6f6e657869737460008301527f656e7420746f6b656e00000000000000000000000000000000000000000000006020830152604082019050919050565b60006137e76020836141b0565b91507f4552433732313a206d696e7420746f20746865207a65726f20616464726573736000830152602082019050919050565b60006138276020836141b0565b91507f457468657265756d2073656e74206973206e6f742073756666696369656e742e6000830152602082019050919050565b6000613867602c836141b0565b91507f4552433732313a20617070726f76656420717565727920666f72206e6f6e657860008301527f697374656e7420746f6b656e00000000000000000000000000000000000000006020830152604082019050919050565b60006138cd602c836141b0565b91507f4552433732314d657461646174613a2055524920736574206f66206e6f6e657860008301527f697374656e7420746f6b656e00000000000000000000000000000000000000006020830152604082019050919050565b60006139336020836141b0565b91507f4f776e61626c653a2063616c6c6572206973206e6f7420746865206f776e65726000830152602082019050919050565b60006139736029836141b0565b91507f4552433732313a207472616e73666572206f6620746f6b656e2074686174206960008301527f73206e6f74206f776e00000000000000000000000000000000000000000000006020830152604082019050919050565b60006139d9602f836141b0565b91507f4552433732314d657461646174613a2055524920717565727920666f72206e6f60008301527f6e6578697374656e7420746f6b656e00000000000000000000000000000000006020830152604082019050919050565b6000613a3f6021836141b0565b91507f4552433732313a20617070726f76616c20746f2063757272656e74206f776e6560008301527f72000000000000000000000000000000000000000000000000000000000000006020830152604082019050919050565b6000613aa56031836141b0565b91507f4552433732313a207472616e736665722063616c6c6572206973206e6f74206f60008301527f776e6572206e6f7220617070726f7665640000000000000000000000000000006020830152604082019050919050565b6000613b0b601d836141b0565b91507f4d696e74696e67206973206e6f7420616374697661746564207965742e0000006000830152602082019050919050565b6000613b4b602c836141b0565b91507f455243373231456e756d657261626c653a20676c6f62616c20696e646578206f60008301527f7574206f6620626f756e647300000000000000000000000000000000000000006020830152604082019050919050565b6000613bb16032836141b0565b91507f43616e6e6f74206d696e742074686973206e756d626572206f6620426162795360008301527f70697269747320696e206f6e6520676f202100000000000000000000000000006020830152604082019050919050565b6000613c17602e836141b0565b91507f5768792061726520796f75206d696e74696e67206c657373207468616e207a6560008301527f726f2042616279537069726974730000000000000000000000000000000000006020830152604082019050919050565b613c798161434b565b82525050565b613c888161434b565b82525050565b6000613c9a8285613393565b9150613ca68284613393565b91508190509392505050565b6000602082019050613cc760008301846132a5565b92915050565b6000608082019050613ce260008301876132a5565b613cef60208301866132a5565b613cfc6040830185613c7f565b8181036060830152613d0e8184613321565b905095945050505050565b60006020820190508181036000830152613d3381846132b4565b905092915050565b6000602082019050613d506000830184613312565b92915050565b60006020820190508181036000830152613d70818461335a565b905092915050565b60006020820190508181036000830152613d91816133c4565b9050919050565b60006020820190508181036000830152613db18161342a565b9050919050565b60006020820190508181036000830152613dd181613490565b9050919050565b60006020820190508181036000830152613df1816134f6565b9050919050565b60006020820190508181036000830152613e1181613536565b9050919050565b60006020820190508181036000830152613e318161359c565b9050919050565b60006020820190508181036000830152613e51816135dc565b9050919050565b60006020820190508181036000830152613e7181613642565b9050919050565b60006020820190508181036000830152613e91816136a8565b9050919050565b60006020820190508181036000830152613eb18161370e565b9050919050565b60006020820190508181036000830152613ed181613774565b9050919050565b60006020820190508181036000830152613ef1816137da565b9050919050565b60006020820190508181036000830152613f118161381a565b9050919050565b60006020820190508181036000830152613f318161385a565b9050919050565b60006020820190508181036000830152613f51816138c0565b9050919050565b60006020820190508181036000830152613f7181613926565b9050919050565b60006020820190508181036000830152613f9181613966565b9050919050565b60006020820190508181036000830152613fb1816139cc565b9050919050565b60006020820190508181036000830152613fd181613a32565b9050919050565b60006020820190508181036000830152613ff181613a98565b9050919050565b6000602082019050818103600083015261401181613afe565b9050919050565b6000602082019050818103600083015261403181613b3e565b9050919050565b6000602082019050818103600083015261405181613ba4565b9050919050565b6000602082019050818103600083015261407181613c0a565b9050919050565b600060208201905061408d6000830184613c7f565b92915050565b6000604051905081810181811067ffffffffffffffff821117156140ba576140b96144d0565b5b8060405250919050565b600067ffffffffffffffff8211156140df576140de6144d0565b5b602082029050602081019050919050565b600067ffffffffffffffff82111561410b5761410a6144d0565b5b601f19601f8301169050602081019050919050565b600067ffffffffffffffff82111561413b5761413a6144d0565b5b601f19601f8301169050602081019050919050565b6000819050602082019050919050565b600081519050919050565b600081519050919050565b600081519050919050565b6000602082019050919050565b600082825260208201905092915050565b600082825260208201905092915050565b600082825260208201905092915050565b600081905092915050565b60006141d78261434b565b91506141e28361434b565b9250827fffffffffffffffffffffffffffffffffffffffffffffffffffffffffffffffff0382111561421757614216614443565b5b828201905092915050565b600061422d8261434b565b91506142388361434b565b92508261424857614247614472565b5b828204905092915050565b600061425e8261434b565b91506142698361434b565b9250817fffffffffffffffffffffffffffffffffffffffffffffffffffffffffffffffff04831182151516156142a2576142a1614443565b5b828202905092915050565b60006142b88261434b565b91506142c38361434b565b9250828210156142d6576142d5614443565b5b828203905092915050565b60006142ec8261432b565b9050919050565b60008115159050919050565b60007fffffffff0000000000000000000000000000000000000000000000000000000082169050919050565b600073ffffffffffffffffffffffffffffffffffffffff82169050919050565b6000819050919050565b82818337600083830152505050565b60005b83811015614382578082015181840152602081019050614367565b83811115614391576000848401525b50505050565b600060028204905060018216806143af57607f821691505b602082108114156143c3576143c26144a1565b5b50919050565b60006143d48261434b565b91507fffffffffffffffffffffffffffffffffffffffffffffffffffffffffffffffff82141561440757614406614443565b5b600182019050919050565b600061441d8261434b565b91506144288361434b565b92508261443857614437614472565b5b828206905092915050565b7f4e487b7100000000000000000000000000000000000000000000000000000000600052601160045260246000fd5b7f4e487b7100000000000000000000000000000000000000000000000000000000600052601260045260246000fd5b7f4e487b7100000000000000000000000000000000000000000000000000000000600052602260045260246000fd5b7f4e487b7100000000000000000000000000000000000000000000000000000000600052604160045260246000fd5b6000601f19601f8301169050919050565b614519816142e1565b811461452457600080fd5b50565b614530816142f3565b811461453b57600080fd5b50565b614547816142ff565b811461455257600080fd5b50565b61455e8161434b565b811461456957600080fd5b5056fea2646970667358221220e7b471e809d026cacca253184c6a1358a69a434461f592b430ceac9899124bf564736f6c63430008000033",
  "linkReferences": {},
  "deployedLinkReferences": {}
}